:020000040000FA
:020000002D28A9
:08000800A000030EA10000306E
:10001000A200051810288518132805191628192874
:100020000130A20019280230A20019280430A200D1
:1000300019280B10210E8300A00E200E0900083095
:10004000A3000B110A3081000B1D242827280B1157
:100050000A308100A30B242808008316073085008E
:100060009F018730810088308B0007309600831213
:10007000073099000030A2000830A300221845285C
:10008000A2184E28221955283E28051685161F202D
:10009000051285121F20221C3E28452805161F2008
:1000A00005121F20A21C3E284E2885161F208512EF
:0800B0001F20221D3E285528E7
:02400E00A43FCD
:00000001FF
